{
    "_format": "hh-sol-artifact-1",
    "contractName": "Web3RSVP",
    "sourceName": "contracts/Web3RSVP.sol",
    "abi": [
        {
            "anonymous": false,
            "inputs": [
                {
                    "indexed": false,
                    "internalType": "bytes32",
                    "name": "eventID",
                    "type": "bytes32"
                },
                {
                    "indexed": false,
                    "internalType": "address",
                    "name": "attendeeAddress",
                    "type": "address"
                }
            ],
            "name": "ConfirmedAttendee",
            "type": "event"
        },
        {
            "anonymous": false,
            "inputs": [
                {
                    "indexed": false,
                    "internalType": "bytes32",
                    "name": "eventID",
                    "type": "bytes32"
                }
            ],
            "name": "DepositsPaidOut",
            "type": "event"
        },
        {
            "anonymous": false,
            "inputs": [
                {
                    "indexed": false,
                    "internalType": "bytes32",
                    "name": "eventID",
                    "type": "bytes32"
                },
                {
                    "indexed": false,
                    "internalType": "address",
                    "name": "creatorAddress",
                    "type": "address"
                },
                {
                    "indexed": false,
                    "internalType": "uint256",
                    "name": "eventTimestamp",
                    "type": "uint256"
                },
                {
                    "indexed": false,
                    "internalType": "uint256",
                    "name": "maxCapacity",
                    "type": "uint256"
                },
                {
                    "indexed": false,
                    "internalType": "uint256",
                    "name": "deposit",
                    "type": "uint256"
                },
                {
                    "indexed": false,
                    "internalType": "string",
                    "name": "eventDataCID",
                    "type": "string"
                }
            ],
            "name": "NewEventCreated",
            "type": "event"
        },
        {
            "anonymous": false,
            "inputs": [
                {
                    "indexed": false,
                    "internalType": "bytes32",
                    "name": "eventID",
                    "type": "bytes32"
                },
                {
                    "indexed": false,
                    "internalType": "address",
                    "name": "attendeeAddress",
                    "type": "address"
                }
            ],
            "name": "NewRSVP",
            "type": "event"
        },
        {
            "inputs": [
                {
                    "internalType": "bytes32",
                    "name": "eventId",
                    "type": "bytes32"
                }
            ],
            "name": "confirmAllAttendees",
            "outputs": [],
            "stateMutability": "nonpayable",
            "type": "function"
        },
        {
            "inputs": [
                {
                    "internalType": "bytes32",
                    "name": "eventId",
                    "type": "bytes32"
                },
                {
                    "internalType": "address",
                    "name": "attendee",
                    "type": "address"
                }
            ],
            "name": "confirmAttendee",
            "outputs": [],
            "stateMutability": "nonpayable",
            "type": "function"
        },
        {
            "inputs": [
                {
                    "internalType": "uint256",
                    "name": "eventTimestamp",
                    "type": "uint256"
                },
                {
                    "internalType": "uint256",
                    "name": "deposit",
                    "type": "uint256"
                },
                {
                    "internalType": "uint256",
                    "name": "maxCapacity",
                    "type": "uint256"
                },
                {
                    "internalType": "string",
                    "name": "eventDataCID",
                    "type": "string"
                }
            ],
            "name": "createNewEvent",
            "outputs": [],
            "stateMutability": "nonpayable",
            "type": "function"
        },
        {
            "inputs": [
                {
                    "internalType": "bytes32",
                    "name": "eventId",
                    "type": "bytes32"
                }
            ],
            "name": "createNewRSVP",
            "outputs": [],
            "stateMutability": "payable",
            "type": "function"
        },
        {
            "inputs": [
                {
                    "internalType": "bytes32",
                    "name": "",
                    "type": "bytes32"
                }
            ],
            "name": "idToEvent",
            "outputs": [
                {
                    "internalType": "bytes32",
                    "name": "eventId",
                    "type": "bytes32"
                },
                {
                    "internalType": "string",
                    "name": "eventDataCID",
                    "type": "string"
                },
                {
                    "internalType": "address",
                    "name": "eventOwner",
                    "type": "address"
                },
                {
                    "internalType": "uint256",
                    "name": "eventTimestamp",
                    "type": "uint256"
                },
                {
                    "internalType": "uint256",
                    "name": "deposit",
                    "type": "uint256"
                },
                {
                    "internalType": "uint256",
                    "name": "maxCapacity",
                    "type": "uint256"
                },
                {
                    "internalType": "bool",
                    "name": "paidOut",
                    "type": "bool"
                }
            ],
            "stateMutability": "view",
            "type": "function"
        },
        {
            "inputs": [
                {
                    "internalType": "bytes32",
                    "name": "eventId",
                    "type": "bytes32"
                }
            ],
            "name": "withdrawUnclaimedDeposits",
            "outputs": [],
            "stateMutability": "nonpayable",
            "type": "function"
        }
    ],
    "bytecode": "0x608060405234801561001057600080fd5b50612248806100206000396000f3fe6080604052600436106100545760003560e01c806292098c1461005957806317f0165a146100825780636dcdf2cd1461009e57806379747571146100c7578063909ef021146100f0578063acdbe01214610133575b600080fd5b34801561006557600080fd5b50610080600480360381019061007b919061168e565b61015c565b005b61009c60048036038101906100979190611629565b610378565b005b3480156100aa57600080fd5b506100c560048036038101906100c09190611652565b610605565b005b3480156100d357600080fd5b506100ee60048036038101906100e99190611629565b610b6d565b005b3480156100fc57600080fd5b5061011760048036038101906101129190611629565b611025565b60405161012a9796959493929190611ac7565b60405180910390f35b34801561013f57600080fd5b5061015a60048036038101906101559190611629565b61111c565b005b600033308787876040516020016101779594939291906119a5565b60405160208183030381529060405280519060200120905060608060405180610120016040528084815260200186868080601f016020809104026020016040519081016040528093929190818152602001838380828437600081840152601f19601f8201169050808301925050505050505081526020013373ffffffffffffffffffffffffffffffffffffffff16815260200189815260200188815260200187815260200183815260200182815260200160001515815250600080858152602001908152602001600020600082015181600001556020820151816001019080519060200190610267929190611473565b5060408201518160020160006101000a81548173ffffffffffffffffffffffffffffffffffffffff021916908373ffffffffffffffffffffffffffffffffffffffff160217905550606082015181600301556080820151816004015560a0820151816005015560c08201518160060190805190602001906102e99291906114f9565b5060e08201518160070190805190602001906103069291906114f9565b506101008201518160080160006101000a81548160ff0219169083151502179055509050507f2553138c3f9c9008f266dbdbe9fc64f5b71e098d06ef714a190a65a8b9fc6bf383338a898b8a8a6040516103669796959493929190611a5d565b60405180910390a15050505050505050565b60008060008381526020019081526020016000209050806004015434146103d4576040517f08c379a00000000000000000000000000000000000000000000000000000000081526004016103cb90611bfd565b60405180910390fd5b806003015442111561041b576040517f08c379a000000000000000000000000000000000000000000000000000000000815260040161041290611b3d565b60405180910390fd5b8060050154816006018054905010610468576040517f08c379a000000000000000000000000000000000000000000000000000000000815260040161045f90611b5d565b60405180910390fd5b60005b8160060180549050811015610562573373ffffffffffffffffffffffffffffffffffffffff168260060182815481106104cd577f4e487b7100000000000000000000000000000000000000000000000000000000600052603260045260246000fd5b9060005260206000200160009054906101000a900473ffffffffffffffffffffffffffffffffffffffff1673ffffffffffffffffffffffffffffffffffffffff16141561054f576040517f08c379a000000000000000000000000000000000000000000000000000000000815260040161054690611bdd565b60405180910390fd5b808061055a90611e9b565b91505061046b565b5080600601339080600181540180825580915050600190039060005260206000200160009091909190916101000a81548173ffffffffffffffffffffffffffffffffffffffff021916908373ffffffffffffffffffffffffffffffffffffffff1602179055507fb79f4240bbdd272d98e02a5db7f0cf156e5fc000961c517670a26eeeec63ed9082336040516105f9929190611a34565b60405180910390a15050565b600080600084815260200190815260200160002090508060020160009054906101000a900473ffffffffffffffffffffffffffffffffffffffff1673ffffffffffffffffffffffffffffffffffffffff163373ffffffffffffffffffffffffffffffffffffffff16146106ad576040517f08c379a00000000000000000000000000000000000000000000000000000000081526004016106a490611c7d565b60405180910390fd5b600080600090505b82600601805490508110156107db578373ffffffffffffffffffffffffffffffffffffffff16836006018281548110610717577f4e487b7100000000000000000000000000000000000000000000000000000000600052603260045260246000fd5b9060005260206000200160009054906101000a900473ffffffffffffffffffffffffffffffffffffffff1673ffffffffffffffffffffffffffffffffffffffff1614156107c85782600601818154811061079a577f4e487b7100000000000000000000000000000000000000000000000000000000600052603260045260246000fd5b9060005260206000200160009054906101000a900473ffffffffffffffffffffffffffffffffffffffff1691505b80806107d390611e9b565b9150506106b5565b508273ffffffffffffffffffffffffffffffffffffffff168173ffffffffffffffffffffffffffffffffffffffff161461084a576040517f08c379a000000000000000000000000000000000000000000000000000000000815260040161084190611c3d565b60405180910390fd5b60005b82600701805490508160ff16101561094a578373ffffffffffffffffffffffffffffffffffffffff16836007018260ff16815481106108b5577f4e487b7100000000000000000000000000000000000000000000000000000000600052603260045260246000fd5b9060005260206000200160009054906101000a900473ffffffffffffffffffffffffffffffffffffffff1673ffffffffffffffffffffffffffffffffffffffff161415610937576040517f08c379a000000000000000000000000000000000000000000000000000000000815260040161092e90611b7d565b60405180910390fd5b808061094290611ee4565b91505061084d565b50600015158260080160009054906101000a900460ff161515146109a3576040517f08c379a000000000000000000000000000000000000000000000000000000000815260040161099a90611b9d565b60405180910390fd5b81600701839080600181540180825580915050600190039060005260206000200160009091909190916101000a81548173ffffffffffffffffffffffffffffffffffffffff021916908373ffffffffffffffffffffffffffffffffffffffff16021790555060008373ffffffffffffffffffffffffffffffffffffffff168360040154604051610a3290611a04565b60006040518083038185875af1925050503d8060008114610a6f576040519150601f19603f3d011682016040523d82523d6000602084013e610a74565b606091505b5050905080610aed5782600701805480610ab7577f4e487b7100000000000000000000000000000000000000000000000000000000600052603160045260246000fd5b6001900381819060005260206000200160006101000a81549073ffffffffffffffffffffffffffffffffffffffff021916905590555b80610b2d576040517f08c379a0000000000000000000000000000000000000000000000000000000008152600401610b2490611bbd565b60405180910390fd5b7ff8d1583a733d83bdd3ef5464129d0a95a36d62b382d31c6d0467a61f4264381b8585604051610b5e929190611a34565b60405180910390a15050505050565b60008060008381526020019081526020016000206040518061012001604052908160008201548152602001600182018054610ba790611e69565b80601f0160208091040260200160405190810160405280929190818152602001828054610bd390611e69565b8015610c205780601f10610bf557610100808354040283529160200191610c20565b820191906000526020600020905b815481529060010190602001808311610c0357829003601f168201915b505050505081526020016002820160009054906101000a900473ffffffffffffffffffffffffffffffffffffffff1673ffffffffffffffffffffffffffffffffffffffff1673ffffffffffffffffffffffffffffffffffffffff16815260200160038201548152602001600482015481526020016005820154815260200160068201805480602002602001604051908101604052809291908181526020018280548015610d2257602002820191906000526020600020905b8160009054906101000a900473ffffffffffffffffffffffffffffffffffffffff1673ffffffffffffffffffffffffffffffffffffffff1681526020019060010190808311610cd8575b5050505050815260200160078201805480602002602001604051908101604052809291908181526020018280548015610db057602002820191906000526020600020905b8160009054906101000a900473ffffffffffffffffffffffffffffffffffffffff1673ffffffffffffffffffffffffffffffffffffffff1681526020019060010190808311610d66575b505050505081526020016008820160009054906101000a900460ff161515151581525050905060001515816101000151151514610e22576040517f08c379a0000000000000000000000000000000000000000000000000000000008152600401610e1990611c1d565b60405180910390fd5b62093a808160600151610e359190611ce4565b421015610e77576040517f08c379a0000000000000000000000000000000000000000000000000000000008152600401610e6e90611c9d565b60405180910390fd5b806040015173ffffffffffffffffffffffffffffffffffffffff163373ffffffffffffffffffffffffffffffffffffffff1614610ee9576040517f08c379a0000000000000000000000000000000000000000000000000000000008152600401610ee090611c5d565b60405180910390fd5b60008160e00151518260c0015151610f019190611d94565b90506000826080015182610f159190611d3a565b905060018361010001901515908115158152505060003373ffffffffffffffffffffffffffffffffffffffff1682604051610f4f90611a04565b60006040518083038185875af1925050503d8060008114610f8c576040519150601f19603f3d011682016040523d82523d6000602084013e610f91565b606091505b5050905080610fa7576000151584610100015150505b80610fe7576040517f08c379a0000000000000000000000000000000000000000000000000000000008152600401610fde90611bbd565b60405180910390fd5b7f393073ea1365f611c3d2f240c992960d2b99dc81715555d3fc40fc55ba80af9c856040516110169190611a19565b60405180910390a15050505050565b600060205280600052604060002060009150905080600001549080600101805461104e90611e69565b80601f016020809104026020016040519081016040528092919081815260200182805461107a90611e69565b80156110c75780601f1061109c576101008083540402835291602001916110c7565b820191906000526020600020905b8154815290600101906020018083116110aa57829003601f168201915b5050505050908060020160009054906101000a900473ffffffffffffffffffffffffffffffffffffffff16908060030154908060040154908060050154908060080160009054906101000a900460ff16905087565b6000806000838152602001908152602001600020604051806101200160405290816000820154815260200160018201805461115690611e69565b80601f016020809104026020016040519081016040528092919081815260200182805461118290611e69565b80156111cf5780601f106111a4576101008083540402835291602001916111cf565b820191906000526020600020905b8154815290600101906020018083116111b257829003601f168201915b505050505081526020016002820160009054906101000a900473ffffffffffffffffffffffffffffffffffffffff1673ffffffffffffffffffffffffffffffffffffffff1673ffffffffffffffffffffffffffffffffffffffff168152602001600382015481526020016004820154815260200160058201548152602001600682018054806020026020016040519081016040528092919081815260200182805480156112d157602002820191906000526020600020905b8160009054906101000a900473ffffffffffffffffffffffffffffffffffffffff1673ffffffffffffffffffffffffffffffffffffffff1681526020019060010190808311611287575b505050505081526020016007820180548060200260200160405190810160405280929190818152602001828054801561135f57602002820191906000526020600020905b8160009054906101000a900473ffffffffffffffffffffffffffffffffffffffff1673ffffffffffffffffffffffffffffffffffffffff1681526020019060010190808311611315575b505050505081526020016008820160009054906101000a900460ff1615151515815250509050806040015173ffffffffffffffffffffffffffffffffffffffff163373ffffffffffffffffffffffffffffffffffffffff16146113f7576040517f08c379a00000000000000000000000000000000000000000000000000000000081526004016113ee90611c7d565b60405180910390fd5b60005b8160c00151518160ff16101561146e5761145b838360c001518360ff168151811061144e577f4e487b7100000000000000000000000000000000000000000000000000000000600052603260045260246000fd5b6020026020010151610605565b808061146690611ee4565b9150506113fa565b505050565b82805461147f90611e69565b90600052602060002090601f0160209004810192826114a157600085556114e8565b82601f106114ba57805160ff19168380011785556114e8565b828001600101855582156114e8579182015b828111156114e75782518255916020019190600101906114cc565b5b5090506114f59190611583565b5090565b828054828255906000526020600020908101928215611572579160200282015b828111156115715782518260006101000a81548173ffffffffffffffffffffffffffffffffffffffff021916908373ffffffffffffffffffffffffffffffffffffffff16021790555091602001919060010190611519565b5b50905061157f9190611583565b5090565b5b8082111561159c576000816000905550600101611584565b5090565b6000813590506115af816121cd565b92915050565b6000813590506115c4816121e4565b92915050565b60008083601f8401126115dc57600080fd5b8235905067ffffffffffffffff8111156115f557600080fd5b60208301915083600182028301111561160d57600080fd5b9250929050565b600081359050611623816121fb565b92915050565b60006020828403121561163b57600080fd5b6000611649848285016115b5565b91505092915050565b6000806040838503121561166557600080fd5b6000611673858286016115b5565b9250506020611684858286016115a0565b9150509250929050565b6000806000806000608086880312156116a657600080fd5b60006116b488828901611614565b95505060206116c588828901611614565b94505060406116d688828901611614565b935050606086013567ffffffffffffffff8111156116f357600080fd5b6116ff888289016115ca565b92509250509295509295909350565b61171781611dc8565b82525050565b61172e61172982611dc8565b611f0e565b82525050565b61173d81611dda565b82525050565b61174c81611de6565b82525050565b600061175e8385611cd3565b935061176b838584611e27565b61177483611f9a565b840190509392505050565b600061178a82611cbd565b6117948185611cd3565b93506117a4818560208601611e36565b6117ad81611f9a565b840191505092915050565b60006117c5601683611cd3565b91506117d082611fb8565b602082019050919050565b60006117e8602783611cd3565b91506117f382611fe1565b604082019050919050565b600061180b600f83611cd3565b915061181682612030565b602082019050919050565b600061182e601083611cd3565b915061183982612059565b602082019050919050565b6000611851601483611cd3565b915061185c82612082565b602082019050919050565b6000611874601183611cd3565b915061187f826120ab565b602082019050919050565b6000611897600a83611cd3565b91506118a2826120d4565b602082019050919050565b60006118ba600c83611cd3565b91506118c5826120fd565b602082019050919050565b60006118dd601283611cd3565b91506118e882612126565b602082019050919050565b6000611900600083611cc8565b915061190b8261214f565b600082019050919050565b6000611923601383611cd3565b915061192e82612152565b602082019050919050565b6000611946600e83611cd3565b91506119518261217b565b602082019050919050565b6000611969600983611cd3565b9150611974826121a4565b602082019050919050565b61198881611e10565b82525050565b61199f61199a82611e10565b611f32565b82525050565b60006119b1828861171d565b6014820191506119c1828761171d565b6014820191506119d1828661198e565b6020820191506119e1828561198e565b6020820191506119f1828461198e565b6020820191508190509695505050505050565b6000611a0f826118f3565b9150819050919050565b6000602082019050611a2e6000830184611743565b92915050565b6000604082019050611a496000830185611743565b611a56602083018461170e565b9392505050565b600060c082019050611a72600083018a611743565b611a7f602083018961170e565b611a8c604083018861197f565b611a99606083018761197f565b611aa6608083018661197f565b81810360a0830152611ab9818486611752565b905098975050505050505050565b600060e082019050611adc600083018a611743565b8181036020830152611aee818961177f565b9050611afd604083018861170e565b611b0a606083018761197f565b611b17608083018661197f565b611b2460a083018561197f565b611b3160c0830184611734565b98975050505050505050565b60006020820190508181036000830152611b56816117b8565b9050919050565b60006020820190508181036000830152611b76816117db565b9050919050565b60006020820190508181036000830152611b96816117fe565b9050919050565b60006020820190508181036000830152611bb681611821565b9050919050565b60006020820190508181036000830152611bd681611844565b9050919050565b60006020820190508181036000830152611bf681611867565b9050919050565b60006020820190508181036000830152611c168161188a565b9050919050565b60006020820190508181036000830152611c36816118ad565b9050919050565b60006020820190508181036000830152611c56816118d0565b9050919050565b60006020820190508181036000830152611c7681611916565b9050919050565b60006020820190508181036000830152611c9681611939565b9050919050565b60006020820190508181036000830152611cb68161195c565b9050919050565b600081519050919050565b600081905092915050565b600082825260208201905092915050565b6000611cef82611e10565b9150611cfa83611e10565b9250827fffffffffffffffffffffffffffffffffffffffffffffffffffffffffffffffff03821115611d2f57611d2e611f3c565b5b828201905092915050565b6000611d4582611e10565b9150611d5083611e10565b9250817fffffffffffffffffffffffffffffffffffffffffffffffffffffffffffffffff0483118215151615611d8957611d88611f3c565b5b828202905092915050565b6000611d9f82611e10565b9150611daa83611e10565b925082821015611dbd57611dbc611f3c565b5b828203905092915050565b6000611dd382611df0565b9050919050565b60008115159050919050565b6000819050919050565b600073ffffffffffffffffffffffffffffffffffffffff82169050919050565b6000819050919050565b600060ff82169050919050565b82818337600083830152505050565b60005b83811015611e54578082015181840152602081019050611e39565b83811115611e63576000848401525b50505050565b60006002820490506001821680611e8157607f821691505b60208210811415611e9557611e94611f6b565b5b50919050565b6000611ea682611e10565b91507fffffffffffffffffffffffffffffffffffffffffffffffffffffffffffffffff821415611ed957611ed8611f3c565b5b600182019050919050565b6000611eef82611e1a565b915060ff821415611f0357611f02611f3c565b5b600182019050919050565b6000611f1982611f20565b9050919050565b6000611f2b82611fab565b9050919050565b6000819050919050565b7f4e487b7100000000000000000000000000000000000000000000000000000000600052601160045260246000fd5b7f4e487b7100000000000000000000000000000000000000000000000000000000600052602260045260246000fd5b6000601f19601f8301169050919050565b60008160601b9050919050565b7f4556454e5420414c52454144592048415050454e454400000000000000000000600082015250565b7f54686973206576656e742068617320616c72656164792072656163686564206360008201527f6170616369747900000000000000000000000000000000000000000000000000602082015250565b7f414c524541445920434c41494d45440000000000000000000000000000000000600082015250565b7f414c52454144592050414944204f555400000000000000000000000000000000600082015250565b7f4661696c656420746f2073656e64204574686572000000000000000000000000600082015250565b7f414c524541445920434f4e4649524d4544000000000000000000000000000000600082015250565b7f4e4f5420454e4f55474800000000000000000000000000000000000000000000600082015250565b7f414c524541445920504149440000000000000000000000000000000000000000600082015250565b7f4e4f205253565020544f20434f4e4649524d0000000000000000000000000000600082015250565b50565b7f4d555354204245204556454e54204f574e455200000000000000000000000000600082015250565b7f4e4f5420415554484f52495a4544000000000000000000000000000000000000600082015250565b7f544f4f204541524c590000000000000000000000000000000000000000000000600082015250565b6121d681611dc8565b81146121e157600080fd5b50565b6121ed81611de6565b81146121f857600080fd5b50565b61220481611e10565b811461220f57600080fd5b5056fea26469706673582212202111454f973b048f005fa1e7be3daee963560fa8c5315d75d92c9a6d0b42e08664736f6c63430008040033",
    "linkReferences": {},
    "deployedLinkReferences": {}
}